{
  "contractName": "Store",
  "abi": [
    {
      "inputs": [],
      "payable": false,
      "stateMutability": "nonpayable",
      "type": "constructor"
    },
    {
      "anonymous": false,
      "inputs": [
        {
          "indexed": false,
          "name": "_from",
          "type": "address"
        },
        {
          "indexed": false,
          "name": "value",
          "type": "uint256"
        },
        {
          "indexed": false,
          "name": "itemName",
          "type": "string"
        }
      ],
      "name": "BoughtItem",
      "type": "event"
    },
    {
      "constant": false,
      "inputs": [
        {
          "name": "itemName",
          "type": "string"
        }
      ],
      "name": "buyItem",
      "outputs": [],
      "payable": true,
      "stateMutability": "payable",
      "type": "function"
    }
  ],
  "bytecode": "0x6060604052341561000f57600080fd5b336000806101000a81548173ffffffffffffffffffffffffffffffffffffffff021916908373ffffffffffffffffffffffffffffffffffffffff16021790555061019f8061005e6000396000f300606060405260043610610041576000357c0100000000000000000000000000000000000000000000000000000000900463ffffffff16806313f1992614610046575b600080fd5b610096600480803590602001908201803590602001908080601f01602080910402602001604051908101604052809392919081815260200183838082843782019150505050505091905050610098565b005b7fbcd194995966e8999ee852ee9684380d6709ea2b606a99a34bcddf73ead79232333483604051808473ffffffffffffffffffffffffffffffffffffffff1673ffffffffffffffffffffffffffffffffffffffff16815260200183815260200180602001828103825283818151815260200191508051906020019080838360005b83811015610134578082015181840152602081019050610119565b50505050905090810190601f1680156101615780820380516001836020036101000a031916815260200191505b5094505050505060405180910390a1505600a165627a7a7230582094b325055b95e3307f02d9bb5277401449aca0672e41956677ab4a81b7acacf30029",
  "source": "pragma solidity ^0.4.18;\r\n\r\ncontract Store {\r\n    address owner;\r\n\r\n    mapping (address=> mapping(uint256=>string)) itemsOwned;\r\n    \r\n    function Store() public {\r\n        owner = msg.sender;\r\n    }\r\n\r\n    event BoughtItem(address _from, uint value,string itemName);\r\n\r\n    modifier isOwner() {\r\n        require(msg.sender == owner);\r\n        _;\r\n    }\r\n\r\n    function buyItem(string itemName) public payable {\r\n\r\n\r\n        BoughtItem(msg.sender,msg.value,itemName);\r\n    }\r\n}",
  "sourcePath": "F:\\Codexio\\MyStore\\MyStore.SPA\\contracts\\Store.sol",
  "compiler": {
    "name": "solc",
    "version": "0.4.19+commit.c4cbbb05.Emscripten.clang"
  },
  "schemaVersion": "1.0.1",
  "updatedAt": "2018-03-27T14:03:28.624Z"
}