{
  "contractName": "Store",
  "abi": [
    {
      "inputs": [],
      "payable": false,
      "stateMutability": "nonpayable",
      "type": "constructor"
    },
    {
      "anonymous": false,
      "inputs": [
        {
          "indexed": true,
          "name": "_from",
          "type": "address"
        },
        {
          "indexed": false,
          "name": "value",
          "type": "uint256"
        },
        {
          "indexed": false,
          "name": "itemName",
          "type": "string"
        },
        {
          "indexed": false,
          "name": "timestamp",
          "type": "uint256"
        }
      ],
      "name": "BoughtItem",
      "type": "event"
    },
    {
      "constant": false,
      "inputs": [
        {
          "name": "itemName",
          "type": "string"
        }
      ],
      "name": "buyItem",
      "outputs": [],
      "payable": true,
      "stateMutability": "payable",
      "type": "function"
    },
    {
      "constant": false,
      "inputs": [
        {
          "name": "amount",
          "type": "uint256"
        }
      ],
      "name": "withdraw",
      "outputs": [],
      "payable": false,
      "stateMutability": "nonpayable",
      "type": "function"
    }
  ],
  "bytecode": "0x6060604052341561000f57600080fd5b336000806101000a81548173ffffffffffffffffffffffffffffffffffffffff021916908373ffffffffffffffffffffffffffffffffffffffff16021790555061029c8061005e6000396000f30060606040526004361061004c576000357c0100000000000000000000000000000000000000000000000000000000900463ffffffff16806313f19926146100515780632e1a7d4d146100a3575b600080fd5b6100a1600480803590602001908201803590602001908080601f016020809104026020016040519081016040528093929190818152602001838380828437820191505050505050919050506100c6565b005b34156100ae57600080fd5b6100c4600480803590602001909190505061018c565b005b3373ffffffffffffffffffffffffffffffffffffffff167fefecddda204e7c125b6a40b3001dce08fd7251967cd4807ed4df0240e08af3223483426040518084815260200180602001838152602001828103825284818151815260200191508051906020019080838360005b8381101561014d578082015181840152602081019050610132565b50505050905090810190601f16801561017a5780820380516001836020036101000a031916815260200191505b5094505050505060405180910390a250565b6000809054906101000a900473ffffffffffffffffffffffffffffffffffffffff1673ffffffffffffffffffffffffffffffffffffffff163373ffffffffffffffffffffffffffffffffffffffff161415156101e757600080fd5b3073ffffffffffffffffffffffffffffffffffffffff16318110151561020c57600080fd5b6000809054906101000a900473ffffffffffffffffffffffffffffffffffffffff1673ffffffffffffffffffffffffffffffffffffffff166108fc829081150290604051600060405180830381858888f19350505050151561026d57600080fd5b505600a165627a7a72305820b5f7faaadc99222f063a64214d89a8cef4b82d3438f7a78bbc8b4d719c768e040029",
  "source": "pragma solidity ^0.4.18;\r\n\r\ncontract Store {\r\n    address owner;\r\n\r\n    function Store() public {\r\n        owner = msg.sender;\r\n    }\r\n\r\n    event BoughtItem(address indexed _from, uint value,string itemName,uint256 timestamp);\r\n\r\n    modifier isOwner() {\r\n        require(msg.sender == owner);\r\n        _;\r\n    }\r\n\r\n    function buyItem(string itemName) public payable {\r\n\r\n        BoughtItem(msg.sender,msg.value,itemName,block.timestamp);\r\n    }\r\n\r\n    function withdraw(uint256 amount) public isOwner {\r\n        require(amount < this.balance);\r\n        owner.transfer(amount);\r\n    }\r\n}",
  "sourcePath": "F:\\Codexio\\MyStore\\MyStore.SPA\\contracts\\Store.sol",
  "compiler": {
    "name": "solc",
    "version": "0.4.19+commit.c4cbbb05.Emscripten.clang"
  },
  "schemaVersion": "1.0.1",
  "updatedAt": "2018-03-27T16:47:41.740Z"
}